S0170000554152545F554C545241534F4E49432E737265636E
S113000045C0000060C000005EC000005CC000008D
S11300105AC0000058C0000056C0000054C0000080
S113002052C0000050C000004EC000004CC0000090
S11300304AC0000048C0000046C0000044C00000A0
S113004075C1000040C00000ABC100003CC000000E
S11300503AC0000038C0000036C0000034C00000C0
S113006032C0000030C000002EC000002CC00000D0
S11300702AC0000028C00000ADC2000024C0000057
S113008022C0000020C000001EC0000011241FBEBA
S1130090CFEFD0E1DEBFCDBF11E0A0E0B1E0EAEDEB
S11300A0F8E000E00BBF02C007900D92A639B1073B
S11300B0D9F728E0A6E9B1E001C01D92A03CB2073F
S11300C0E1F7FDD008C49CCF8091A2019091A301D7
S11300D0A091A401B091A501883E9340A105B1056A
S11300E050F01092A2011092A3011092A401109258
S11300F0A5018FEF8BBB089580919E0190919F0184
S1130100A091A001B091A1018C329140A105B1054B
S113011028F110929E0110929F011092A00110925A
S1130120A10120919C0130919D012830310534F0CA
S113013010929D0110929C011BBA0895C901019669
S113014090939D0180939C0181E090E002C0880F10
S1130150991F2A95E2F79BB3892B8BBB0895809155
S11301609E0190919F01A091A001B091A1018C32B8
S11301709140A105B10528F110929E0110929F01B2
S11301801092A0011092A10120919A0130919B013B
S11301902830310534F010929B0110929A011BBA59
S11301A00895C901019690939B0180939A0180E878
S11301B090E002C0959587952A95E2F79BB3892B29
S11301C08BBB089580919E0190919F01A091A00105
S11301D0B091A1018C329140A105B10588F1109232
S11301E09E0110929F011092A0011092A101809192
S11301F09801909199018430910534F010929901FD
S1130200109298011BBA08954BB320E130E0B90174
S1130210082E02C0660F771F0A94E2F7019602C007
S1130220359527958A95E2F7262B242B2BBB8091B5
S11302309801909199010196909399018093980166
S1130240089580919E0190919F01A091A001B09189
S1130250A10188359240A105B10580F110929E015B
S113026010929F011092A0011092A1012091960179
S1130270309197012430310534F010929701109297
S113028096011BBA08953BB38FEF90E0AC01022EA8
S113029002C0559547950A94E2F702C0880F991F4A
S11302A02A95E2F7842383238BBB80919601909156
S11302B097010196909397018093960108952ED00B
S11302C0E1D0FBD182E091E09093BD088093BC081B
S11302D078948FEF8ABB1BBA80E191E0CCD2E6D050
S11302E001D280910001909101018230910581F049
S11302F02CF4009749F0019749F0F1CF8330910530
S113030049F0049749F0EBCFF7DEE9CF28DFE7CFD8
S113031059DFE5CF96DFE3CFD7DEE1CF86E082BFBA
S113032083B7846083BF81E087BF08951F920F92D3
S11303300FB60F9211248F939F93AF93BF9386E0D0
S113034082BF8091A2019091A301A091A401B091D8
S1130350A5010196A11DB11D8093A2019093A30153
S1130360A093A401B093A50180919E0190919F0157
S1130370A091A001B091A1010196A11DB11D80938E
S11303809E0190939F01A093A001B093A101BF91FE
S1130390AF919F918F910F900FBE0F901F90189562
S11303A01F920F920FB60F9211240BB60F922F9338
S11303B03F934F935F936F937F938F939F93AF93E9
S11303C0BF93EF93FF938CB18D3011F08A3061F5B8
S11303D02091AA013091AB018091A6019091A701CF
S11303E048E2429FF001439FF00D1124EA5EFD4F65
S11303F0E80FF91F10821092A7011092A6018091B4
S1130400AA019091AB0101969093AB018093AA014C
S11304108091AA019091AB0164E170E0F7D19093CF
S1130420AB018093AA011BC06091AA017091AB013A
S11304302091A6013091A701A9014F5F5F4F50930E
S1130440A7014093A60198E2969FA001979F500DA3
S113045011244A5E5D4FFA01E20FF31F8083FF917E
S1130460EF91BF91AF919F918F917F916F915F9128
S11304704F913F912F910F900BBE0F900FBE0F9095
S11304801F901895109290008FEC89B98BB18260FF
S11304908BB9E5E9F0E08081866080838AB1886960
S11304A08AB908955D9BFECF8CB90895CF93DF93ED
S11304B02091A8013091A9018091AA019091AB01EA
S11304C02817390709F483C08091A8019091A901E4
S11304D028E2289FE001299FD00D1124CA5EDD4F38
S11304E0CE01C9D18091A8019091A901019664E13E
S11304F070E08CD19093A9018093A8014AE050E068
S11305006EE171E0CE01A9D1892B49F48FEF8BBB49
S113051085E090E0909301018093000158C04BE086
S113052050E069E271E0CE0198D1892B41F41BBA05
S113053085E090E0909301018093000148C04EE073
S113054050E065E371E0CE0188D1892B39F484E071
S113055090E0909301018093000139C04CE150E098
S113056064E471E0CE0179D1892B29F41092010160
S1130570109200012CC04CE150E061E671E0CE0124
S11305806CD1892B39F481E090E090930101809340
S113059000011DC04AE050E06EE771E0CE015DD17C
S11305A0892B39F482E090E090930101809300015B
S11305B00EC04BE050E069E871E0CE014ED1892BCA
S11305C031F483E090E09093010180930001DF9186
S11305D0CF9108951F920F920FB60F9211240BB66C
S11305E00F922F933F934F935F936F937F938F93C8
S11305F09F93AF93BF93EF93FF9380919C008D30B3
S113060011F08A3061F52091B0013091B1018091EF
S1130610AC019091AD0148E2429FF001439FF00D7F
S11306201124EA5CFA4FE80FF91F10821092AD0111
S11306301092AC018091B0019091B1010196909318
S1130640B1018093B0018091B0019091B10164E156
S113065070E0DCD09093B1018093B0011BC0609135
S1130660B0017091B1012091AC013091AD01A901AB
S11306704F5F5F4F5093AD014093AC0198E2969F5A
S1130680A001979F500D11244A5C5A4FFA01E20FC2
S1130690F31F8083FF91EF91BF91AF919F918F9151
S11306A07F916F915F914F913F912F910F900BBE6E
S11306B00F900FBE0F901F901895109298008FEC1A
S11306C080939900EBE9F0E0808182608083EDE91A
S11306D0F0E0808186608083EAE9F0E080818869C7
S11306E080830895CF93DF932091AE013091AF01C1
S11306F08091B0019091B1012817390709F483C0A2
S11307008091AE019091AF0128E2289FE001299FDA
S1130710D00D1124CA5CDA4FCE01ADD08091AE0168
S11307209091AF01019664E170E070D09093AF01B5
S11307308093AE014AE050E06EE171E0CE018DD0CD
S1130740892B49F48FEF8BBB85E090E090930101F6
S11307508093000158C04BE050E069E271E0CE01A3
S11307607CD0892B41F41BBA85E090E09093010181
S11307708093000148C04EE050E065E371E0CE0193
S11307806CD0892B39F484E090E09093010180933C
S1130790000139C04CE150E064E471E0CE015DD069
S11307A0892B29F410920101109200012CC04CE114
S11307B050E061E671E0CE0150D0892B39F481E03C
S11307C090E090930101809300011DC04AE050E045
S11307D06EE771E0CE0141D0892B39F482E090E0DC
S11307E090930101809300010EC04BE050E069E852
S11307F071E0CE0132D0892B31F483E090E0909304
S1130800010180930001DF91CF91089597FB072E9A
S113081016F4009406D077FD08D00BD007FC05D061
S11308203EF4909581959F4F0895709561957F4F03
S11308300895AA1BBB1B51E107C0AA1FBB1FA61723
S1130840B70710F0A61BB70B881F991F5A95A9F775
S113085080959095BC01CD010895FB01DC014150C8
S1130860504030F08D910190801919F40020B9F7AF
S1130870881B990B08950F931F93CF93DF93E091F7
S1130880BC08F091BD08238121FF1BC08C01D0E07E
S1130890C0E0F80181918F016091BC087091BD089E
S11308A0DB011896ED91FC911997882331F0099595
S11308B0892B79F3DFEFCFEFECCF8AE00995892B11
S11308C019F08FEF9FEF02C08D2F9C2FDF91CF91F6
S10D08D01F910F910895F894FFCFD3
S11308DA05000000000200000000520200000000AF
S11308EA55415254205445535421212121006C6509
S11308FA645F616C6C5F6F6E006C65645F616C6CE5
S113090A5F6F6666006C65645F616C6C5F6F6E5FD7
S113091A6F66660073686966745F6C656674323202
S113092A72696768745F6B6565705F6C65646F6E26
S113093A0073686966745F726967687432326C65D9
S113094A66745F6B6565705F6C65646F6E00666C78
S113095A6F7765725F6F6E3200666C6F7765725F70
S109096A6F666632000016
S9030000FC
