:1000000045C0000061C000005FC000005DC000008E
:100010005BC000001BC4000057C0000055C00000BA
:1000200053C0000051C000004FC000004DC0000090
:100030004BC0000049C0000047C0000045C00000A0
:1000400078C1000041C00000C1C100003DC00000F7
:100050003BC0000039C0000037C0000035C00000C0
:1000600033C0000031C000002FC000002DC00000D0
:100070002BC0000029C00000CFC2000025C0000036
:1000800023C0000021C000001FC0000011241FBEBB
:10009000CFEFD0E1DEBFCDBF11E0A0E0B1E0EEEAEE
:1000A000F4E100E00BBF02C007900D92A23AB10745
:1000B000D9F728E0A2EAB1E001C01D92A03AB20748
:1000C000E1F7FED00C94550A9BCF8091B20190913C
:1000D000B301A091B401B091B501883E9340A10550
:1000E000B10550F01092B2011092B3011092B40118
:1000F0001092B5018FEF8BBB08958091AE01909166
:10010000AF01A091B001B091B1018C329140A10535
:10011000B10528F11092AE011092AF011092B0011A
:100120001092B1012091A8013091A9012830310528
:1001300034F01092A9011092A8011BBA0895C901C8
:1001400001969093A9018093A80181E090E002C0FC
:10015000880F991F2A95E2F79BB3892B8BBB0895D3
:100160008091AE019091AF01A091B001B091B10129
:100170008C329140A105B10528F11092AE01109288
:10018000AF011092B0011092B1012091A6013091FF
:10019000A7012830310534F01092A7011092A60172
:1001A0001BBA0895C90101969093A7018093A601F7
:1001B00080E890E002C0959587952A95E2F79BB379
:1001C000892B8BBB08958091AE019091AF01A091D6
:1001D000B001B091B1018C329140A105B10588F117
:1001E0001092AE011092AF011092B0011092B101C5
:1001F0008091A4019091A5018430910534F0109272
:10020000A5011092A4011BBA08954BB320E130E080
:10021000B901082E02C0660F771F0A94E2F7019613
:1002200002C0359527958A95E2F7262B242B2BBB08
:100230008091A4019091A50101969093A5018093CE
:10024000A40108958091AE019091AF01A091B001F9
:10025000B091B10188359240A105B10580F11092AD
:10026000AE011092AF011092B0011092B101209135
:10027000A2013091A3012430310534F01092A30182
:100280001092A2011BBA08953BB38FEF90E0AC012E
:10029000022E02C0559547950A94E2F702C0880FD6
:1002A000991F2A95E2F7842383238BBB8091A201B7
:1002B0009091A30101969093A3018093A2010895C8
:1002C00030D002D11CD282E091E090939D088093BF
:1002D0009C0899D378948FEF8ABB1BBA80E191E098
:1002E000D9D506D121D2B4D38091000190910101DA
:1002F0008230910581F02CF4009749F0019749F084
:10030000F0CF8330910549F0049749F0EACFF5DE4C
:10031000E8CF26DFE6CF57DFE4CF94DFE2CFD5DEAC
:10032000E0CF86E082BF83B7846083BF81E087BF70
:1003300008951F920F920FB60F9211248F939F93DF
:10034000AF93BF9386E082BF8091B2019091B301D9
:10035000A091B401B091B5010196A11DB11D80938A
:10036000B2019093B301A093B401B093B501809111
:10037000AE019091AF01A091B001B091B101019691
:10038000A11DB11D8093AE019093AF01A093B00168
:10039000B093B1018091AA019091AB01A091AC0101
:1003A000B091AD010196A11DB11D8093AA0190935A
:1003B000AB01A093AC01B093AD01BF91AF919F9100
:1003C0008F910F900FBE0F901F9018951F920F9254
:1003D0000FB60F9211240BB60F922F933F934F93AA
:1003E0005F936F937F938F939F93AF93BF93EF939D
:1003F000FF93CF93DF931F92CDB7DEB78CB1898384
:1004000089818D3019F089818A3061F52091BA0196
:100410003091BB018091B6019091B70148E2429FB3
:10042000F001439FF00D1124EC53FE4FE80FF91F2C
:1004300010821092B7011092B6018091BA0190918A
:10044000BB0101969093BB018093BA018091BA01E0
:100450009091BB0164E170E0D5D49093BB0180938F
:10046000BA011CC06091BA017091BB018091B601C4
:100470009091B7019C012F5F3F4F3093B7012093BC
:10048000B601498158E2569F9001579F300D1124C3
:100490002C533E4FF901E80FF91F40830F90DF9175
:1004A000CF91FF91EF91BF91AF919F918F917F91EC
:1004B0006F915F914F913F912F910F900BBE0F90D5
:1004C0000FBE0F901F901895109290008FEC89B975
:1004D0008BB182608BB9E5E9F0E080818660808332
:1004E0008AB188698AB908955D9BFECF8CB9089559
:1004F000CF93DF932091B8013091B9018091BA0177
:100500009091BB012817390709F483C08091B80185
:100510009091B90128E2289FE001299FD00D112474
:10052000CC53DE4FCE01B6D48091B8019091B90181
:10053000019664E170E066D49093B9018093B801AC
:100540004AE050E06EE171E0CE0183D4892B49F49A
:100550008FEF8BBB85E090E09093010180930001C9
:1005600058C04BE050E069E271E0CE0172D4892BB3
:1005700041F41BBA85E090E0909301018093000163
:1005800048C04EE050E065E371E0CE0162D4892BB3
:1005900039F484E090E0909301018093000139C028
:1005A0004CE150E064E471E0CE0153D4892B29F48E
:1005B00010920101109200012CC04CE150E061E664
:1005C00071E0CE0146D4892B39F481E090E090931C
:1005D0000101809300011DC04AE050E06EE771E028
:1005E000CE0137D4892B39F482E090E09093010159
:1005F000809300010EC04BE050E069E871E0CE014D
:1006000028D4892B31F483E090E09093010180930A
:100610000001DF91CF9108951F920F920FB60F92B4
:1006200011240BB60F922F933F934F935F936F93C9
:100630007F938F939F93AF93BF93EF93FF9380919B
:100640009C008D3011F08A3061F52091C00130910D
:10065000C1018091BC019091BD0148E2429FF0012F
:10066000439FF00D1124EC51FB4FE80FF91F10824E
:100670001092BD011092BC018091C0019091C10106
:1006800001969093C1018093C0018091C001909127
:10069000C10164E170E0B6D39093C1018093C001C1
:1006A0001BC06091C0017091C1012091BC013091CB
:1006B000BD01A9014F5F5F4F5093BD014093BC0145
:1006C00098E2969FA001979F500D11244C515B4FCB
:1006D000FA01E20FF31F8083FF91EF91BF91AF9179
:1006E0009F918F917F916F915F914F913F912F914A
:1006F0000F900BBE0F900FBE0F901F901895109289
:1007000098008FEC80939900EBE9F0E080818260A3
:100710008083EDE9F0E0808186608083EAE9F0E0A3
:100720008081886980830895CF93DF932091BE01F3
:100730003091BF018091C0019091C1012817390704
:1007400009F481C08091BE019091BF0128E2289FE9
:10075000E001299FD00D1124CC51DB4F8091BE01C7
:100760009091BF01019664E170E04CD39093BF017A
:100770008093BE014AE050E06EE171E0CE0169D3A2
:10078000892B49F48FEF8BBB85E090E090930101BA
:100790008093000158C04BE050E069E271E0CE0167
:1007A00058D3892B41F41BBA85E090E09093010166
:1007B0008093000148C04EE050E065E371E0CE0157
:1007C00048D3892B39F484E090E090930101809321
:1007D000000139C04CE150E064E471E0CE0139D34E
:1007E000892B29F410920101109200012CC04CE1D8
:1007F00050E061E671E0CE012CD3892B39F481E021
:1008000090E090930101809300011DC04AE050E008
:100810006EE771E0CE011DD3892B39F482E090E0C0
:1008200090930101809300010EC04BE050E069E815
:1008300071E0CE010ED3892B31F483E090E09093E8
:10084000010180930001DF91CF9108951F920F92D3
:100850000FB60F9211240BB60F92CF92DF92EF9248
:10086000FF922F933F934F935F936F937F938F9359
:100870009F93AF93BF93CF93DF93EF93FF930C9B23
:1008800003C01DBC1CBCA6C06CB57DB580E090E06B
:10089000A0D120E034E244E759E451D220E030E036
:1008A00040E854E44CD220E034E244E75BE4F8D082
:1008B0005FD17093C3016093C2018091C201909196
:1008C000C301CAE3D0E0BE019DD27F936F9385E957
:1008D00091E09F938F9388E698E09F938F930AD33C
:1008E0008091C2019091C301BE018CD2072E000CF1
:1008F000880B990B70D16B017C010F900F900F90BA
:100900000F900F900F9020E030E040E850E413D2B9
:10091000181664F420E030E040EA50E4C701B60164
:10092000BBD018161CF08FE18BBB54C020E030E028
:1009300040E450E4C701B601FED1181664F420E08B
:1009400030E040E850E4C701B601A6D018161CF00C
:100950008FE08BBB3FC020E030E040E050E4C701B7
:10096000B601E9D1181664F420E030E040E450E428
:10097000C701B60191D018161CF087E08BBB2AC0C6
:1009800020E030E040E85FE3C701B601D4D118169B
:1009900064F420E030E040E050E4C701B6017CD0D0
:1009A00018161CF083E08BBB15C020E030E0A901D5
:1009B000C701B601C0D1181664F420E030E040E869
:1009C0005FE3C701B60168D018161CF081E08BBB4D
:1009D00001C01BBAFF91EF91DF91CF91BF91AF9111
:1009E0009F918F917F916F915F914F913F912F9147
:1009F000FF90EF90DF90CF900F900BBE0F900FBE47
:100A00000F901F901895E4E6F0E08081806180836C
:100A100082B18F7E82B98AB781608ABF8EB58560C8
:100A20008EBD89B7806189BF0895E5E6F0E08081D9
:100A30008F7E808385E08A95F1F700008081806158
:100A4000808380E58A95F1F780818F7E8083089589
:100A50008091AA019091AB01A091AC01B091AD0140
:100A6000893E9340A105B105B0F01092AA01109201
:100A7000AB011092AC011092AD0188E698E09F9313
:100A80008F938FE991E09F938F93F1D1CEDF0F90F9
:100A90000F900F900F900895D9D008F481E0089539
:100AA0000CD00FC107D140F0FED030F021F45F3FF1
:100AB00019F0F0C0511139C1F3C014D198F3992342
:100AC000C9F35523B1F3951B550BBB27AA27621712
:100AD0007307840738F09F5F5F4F220F331F441F57
:100AE000AA1FA9F333D00E2E3AF0E0E830D091508F
:100AF0005040E695001CCAF729D0FE2F27D0660F7C
:100B0000771F881FBB1F261737074807AB07B0E8BA
:100B100009F0BB0B802DBF01FF2793585F4F2AF0D0
:100B20009E3F510568F0B6C000C15F3FECF3983EB0
:100B3000DCF3869577956795B795F7959F5FC9F72D
:100B4000880F911D9695879597F90895E1E0660FB6
:100B5000771F881FBB1F621773078407BA0720F02F
:100B6000621B730B840BBA0BEE1F88F7E095089598
:100B700004D06894B111D9C00895BCD088F09F57B3
:100B800090F0B92F9927B751A0F0D1F0660F771FD9
:100B9000881F991F1AF0BA95C9F712C0B13081F0B9
:100BA000C3D0B1E00895C0C0672F782F8827B85F01
:100BB00039F0B93FCCF3869577956795B395D9F71A
:100BC0003EF490958095709561957F4F8F4F9F4F24
:100BD0000895E89409C097FB3EF490958095709530
:100BE00061957F4F8F4F9F4F9923A9F0F92F96E979
:100BF000BB279395F695879577956795B795F111EE
:100C0000F8CFFAF4BB0F11F460FF1BC06F5F7F4F8A
:100C10008F4F9F4F16C0882311F096E911C077239C
:100C200021F09EE8872F762F05C0662371F096E8A5
:100C3000862F70E060E02AF09A95660F771F881F74
:100C4000DAF7880F9695879597F90895990F000818
:100C5000550FAA0BE0E8FEEF16161706E807F9078E
:100C6000C0F012161306E407F50798F0621B730B29
:100C7000840B950B39F40A2661F0232B242B252BAA
:100C800021F408950A2609F4A140A6958FEF811D4D
:100C9000811D089597F99F6780E870E060E00895EE
:100CA0009FEF80EC089500240A9416161706180684
:100CB0000906089500240A94121613061406050660
:100CC0000895092E0394000C11F4882352F0BB0FF1
:100CD00040F4BF2B11F460FF04C06F5F7F4F8F4F54
:100CE0009F4F089557FD9058440F551F59F05F3F8F
:100CF00071F04795880F97FB991F61F09F3F79F03E
:100D000087950895121613061406551FF2CF4695BF
:100D1000F1DF08C0161617061806991FF1CF869541
:100D20007105610508940895E894BB276627772725
:100D3000CB0197F908958ADF08F48FEF08950BD05F
:100D4000C0CFB1DF28F0B6DF18F0952309F0A2CFAD
:100D5000A7CF1124EACFC6DFA0F3959FD1F3950F5B
:100D600050E0551F629FF001729FBB27F00DB11D2F
:100D7000639FAA27F00DB11DAA1F649F6627B00DBF
:100D8000A11D661F829F2227B00DA11D621F739FA8
:100D9000B00DA11D621F839FA00D611D221F749FB6
:100DA0003327A00D611D231F849F600D211D822FFD
:100DB000762F6A2F11249F5750408AF0E1F0882344
:100DC0004AF0EE0FFF1FBB1F661F771F881F915051
:100DD0005040A9F79E3F510570F05CCFA6CF5F3F12
:100DE000ECF3983EDCF3869577956795B795F79584
:100DF000E7959F5FC1F7FE2B880F911D969587950C
:100E000097F9089597FB072E16F4009406D077FD06
:100E100008D00BD007FC05D03EF4909581959F4FEC
:100E20000895709561957F4F0895AA1BBB1B51E1F2
:100E300007C0AA1FBB1FA617B70710F0A61BB70B4A
:100E4000881F991F5A95A9F780959095BC01CD01EF
:100E50000895FB01DC014150504030F08D9101902C
:100E6000801919F40020B9F7881B990B0895CF93C6
:100E7000DF93CDB7DEB7AE014B5F5F4FFA016191F3
:100E80007191AF0180919C0890919D0861D0DF9194
:100E9000CF9108950F931F93CF93DF93E0919C0818
:100EA000F0919D08238121FF1BC08C01D0E0C0E0A0
:100EB000F80181918F0160919C0870919D08DB0180
:100EC0001896ED91FC911997882331F00995892B9B
:100ED00079F3DFEFCFEFECCF8AE00995892B19F09A
:100EE0008FEF9FEF02C08D2F9C2FDF91CF911F912D
:100EF0000F9108950F931F93CF93DF93CDB7DEB774
:100F00002E970FB6F894DEBF0FBECDBF0D891E8998
:100F100086E08C831A8309838FEF9FE79E838D83FE
:100F2000AE01475E5F4F6F89788DCE01019610D07C
:100F3000EF81F885E00FF11F10822E960FB6F8941E
:100F4000DEBF0FBECDBFDF91CF911F910F910895EE
:100F50002F923F924F925F926F927F928F929F92C9
:100F6000AF92BF92CF92DF92EF92FF920F931F93B7
:100F7000CF93DF93CDB7DEB72B970FB6F894DEBFD4
:100F80000FBECDBF6C017B018A01FC011782168266
:100F9000838181FFBFC1CE0101963C01F60193819F
:100FA000F70193FD859193FF81917F01882309F4D7
:100FB000ADC1853239F493FD859193FF81917F0115
:100FC000853221F4B60190E0D6D1E8CF912C212CC6
:100FD000312CFFE1F315D8F08B3279F038F4803200
:100FE00079F08332A1F4232D20611DC08D3261F090
:100FF000803369F4232D216016C0832D8260382E42
:10100000E32DE4603E2E2AC0F32DF8601DC037FCAE
:101010002DC020ED280F2A3040F08E32B9F436FC76
:1010200075C1232D2064322E19C036FE06C08AE019
:10103000989E200D1124922E11C0EAE02E9E200DC4
:101040001124222EF32DF0623F2E08C08C3621F49D
:10105000832D8068382E02C0883641F4F70193FD55
:10106000859193FF81917F018111B3CF982F9F7D4F
:101070009554933028F40C5F1F4F9FE399830DC064
:10108000833631F0833771F0833509F055C020C0C5
:10109000F801808189830E5F1F4F88248394912CEF
:1010A000530112C02801F2E04F0E511CF801A0803C
:1010B000B18036FE03C0692D70E002C06FEF7FEF94
:1010C000C5014ED14C018201F32DFF773F2E15C093
:1010D000280122E0420E511CF801A080B18036FEAA
:1010E00003C0692D70E002C06FEF7FEFC5012DD105
:1010F0004C01F32DF0683F2E820133FC19C0822D84
:1011000090E088169906A0F4B60180E290E033D111
:101110002A94F5CFF50137FC859137FE81915F0167
:10112000B60190E028D121102A9421E0821A91087A
:101130008114910479F7E1C0843611F0893639F5CC
:10114000F80137FE07C060817181828193810C5F55
:101150001F4F08C060817181072E000C880B990B0E
:101160000E5F1F4FF32DFF763F2E97FF09C090951E
:101170008095709561957F4F8F4F9F4FF0683F2E00
:101180002AE030E0A30133D1882E861844C0853789
:1011900031F4232D2F7EB22E2AE030E025C0932D8E
:1011A000997FB92E8F36C1F018F4883579F0AEC02A
:1011B000803719F0883721F0A9C0E92FE061BE2EF1
:1011C000B4FE0DC0FB2DF460BF2E09C034FE0AC072
:1011D000292F2660B22E06C028E030E005C020E1AD
:1011E00030E002C020E132E0F801B7FE07C06081C4
:1011F0007181828193810C5F1F4F06C06081718174
:1012000080E090E00E5F1F4FA301F1D0882E86187A
:10121000FB2DFF773F2E36FE0DC0232D2E7FA22EF5
:10122000891458F434FE0BC032FC09C0832D8E7E25
:10123000A82E05C0B82CA32C03C0B82C01C0B92C13
:10124000A4FE0FC0FE01E80DF11D8081803321F462
:101250009A2D997EA92E09C0A2FE06C0B394B3941C
:1012600004C08A2D867809F0B394A3FC10C0A0FEB8
:1012700006C0B21480F4280C922C9B180DC0B21436
:1012800058F4B60180E290E076D0B394F8CFB2146F
:1012900018F42B1802C0982C212CA4FE0FC0B60104
:1012A00080E390E068D0A2FE16C0A1FC03C088E7EE
:1012B00090E002C088E590E0B6010CC08A2D8678E7
:1012C00051F0A1FE02C08BE201C080E2A7FC8DE2DA
:1012D000B60190E050D0891430F4B60180E390E07C
:1012E0004AD09A94F8CF8A94F301E80DF11D8081D9
:1012F000B60190E040D08110F6CF222009F44ECE06
:10130000B60180E290E037D02A94F7CFF6018681CB
:10131000978102C08FEF9FEF2B960FB6F894DEBF38
:101320000FBECDBFDF91CF911F910F91FF90EF9036
:10133000DF90CF90BF90AF909F908F907F906F90F5
:101340005F904F903F902F900895FC010590615061
:1013500070400110D8F7809590958E0F9F1F0895CB
:10136000FC016150704001900110D8F78095909574
:101370008E0F9F1F08950F931F93CF93DF93FB0151
:10138000238121FD03C08FEF9FEF2CC022FF16C0E9
:1013900046815781248135814217530744F4A08147
:1013A000B1819D012F5F3F4F318320838C93268134
:1013B00037812F5F3F4F3783268314C08B01EC01A9
:1013C000FB010084F185E02D0995892BE1F6D80118
:1013D00016968D919C911797019617969C938E93D4
:1013E0001697CE01DF91CF911F910F910895FA01C9
:1013F000AA27283051F1203181F1E8946F936E7F54
:101400006E5F7F4F8F4F9F4FAF4FB1E03ED0B4E044
:101410003CD0670F781F891F9A1FA11D680F791F85
:101420008A1F911DA11D6A0F711D811D911DA11D96
:1014300020D009F468943F912AE0269F11243019A6
:10144000305D3193DEF6CF010895462F4770405D41
:101450004193B3E00FD0C9F7F6CF462F4F70405DF0
:101460004A3318F0495D31FD4052419302D0A9F74B
:10147000EACFB4E0A6959795879577956795BA9545
:10148000C9F700976105710508959B01AC010A2E0B
:1014900006945795479537952795BA95C9F7620FE2
:0E14A000731F841F951FA01D0895F894FFCFA1
:1014AE0005000000000200000000740200000000B1
:1014BE0055415254205445535421212121006C652D
:1014CE00645F616C6C5F6F6E006C65645F616C6C09
:1014DE005F6F6666006C65645F616C6C5F6F6E5FFC
:1014EE006F66660073686966745F6C656674323227
:1014FE0072696768745F6B6565705F6C65646F6E4B
:10150E000073686966745F726967687432326C65FD
:10151E0066745F6B6565705F6C65646F6E00666C9C
:10152E006F7765725F6F6E3200666C6F7765725F94
:10153E006F66663200646973202564636D0A002548
:02154E00730028
:00000001FF
